{
    "abi": [
        {
            "inputs": [],
            "stateMutability": "nonpayable",
            "type": "constructor"
        },
        {
            "inputs": [],
            "name": "Blackjack__CardHasAlreadyBeenPlayed",
            "type": "error"
        },
        {
            "inputs": [],
            "name": "Blackjack__CardsAlreadyDealt",
            "type": "error"
        },
        {
            "inputs": [],
            "name": "Blackjack__DealerTurn",
            "type": "error"
        },
        {
            "inputs": [
                {
                    "internalType": "uint256",
                    "name": "",
                    "type": "uint256"
                }
            ],
            "name": "Blackjack__IncorrectRequestId",
            "type": "error"
        },
        {
            "inputs": [
                {
                    "internalType": "string",
                    "name": "",
                    "type": "string"
                }
            ],
            "name": "Blackjack__IndexOutOfRange",
            "type": "error"
        },
        {
            "inputs": [
                {
                    "internalType": "bool",
                    "name": "",
                    "type": "bool"
                }
            ],
            "name": "Blackjack__MustDealCards",
            "type": "error"
        },
        {
            "inputs": [],
            "name": "Blackjack__MustStartGameFirst",
            "type": "error"
        },
        {
            "inputs": [
                {
                    "internalType": "bool",
                    "name": "",
                    "type": "bool"
                }
            ],
            "name": "Blackjack__NotDealerTurn",
            "type": "error"
        },
        {
            "inputs": [
                {
                    "internalType": "bool",
                    "name": "",
                    "type": "bool"
                }
            ],
            "name": "Blackjack__NotPlayerTurn",
            "type": "error"
        },
        {
            "inputs": [],
            "name": "Blackjack__RandomCardsNotYetGenerated",
            "type": "error"
        },
        {
            "inputs": [
                {
                    "internalType": "bool",
                    "name": "",
                    "type": "bool"
                }
            ],
            "name": "Blackjack__StillPlayerTurn",
            "type": "error"
        },
        {
            "inputs": [
                {
                    "internalType": "address",
                    "name": "have",
                    "type": "address"
                },
                {
                    "internalType": "address",
                    "name": "want",
                    "type": "address"
                }
            ],
            "name": "OnlyCoordinatorCanFulfill",
            "type": "error"
        },
        {
            "anonymous": false,
            "inputs": [
                {
                    "indexed": false,
                    "internalType": "uint8",
                    "name": "cardValue",
                    "type": "uint8"
                }
            ],
            "name": "Blackjack__CardValue",
            "type": "event"
        },
        {
            "anonymous": false,
            "inputs": [],
            "name": "Blackjack__DealerWins",
            "type": "event"
        },
        {
            "anonymous": false,
            "inputs": [
                {
                    "indexed": false,
                    "internalType": "enum Blackjack.Rank",
                    "name": "",
                    "type": "uint8"
                },
                {
                    "indexed": false,
                    "internalType": "enum Blackjack.Suit",
                    "name": "",
                    "type": "uint8"
                },
                {
                    "indexed": false,
                    "internalType": "uint8",
                    "name": "",
                    "type": "uint8"
                }
            ],
            "name": "Blackjack__PlayerHit",
            "type": "event"
        },
        {
            "anonymous": false,
            "inputs": [],
            "name": "Blackjack__PlayerStands",
            "type": "event"
        },
        {
            "anonymous": false,
            "inputs": [],
            "name": "Blackjack__PlayerWins",
            "type": "event"
        },
        {
            "anonymous": false,
            "inputs": [],
            "name": "Blackjack__PushNoWinner",
            "type": "event"
        },
        {
            "anonymous": false,
            "inputs": [
                {
                    "indexed": true,
                    "internalType": "uint256",
                    "name": "requestId",
                    "type": "uint256"
                }
            ],
            "name": "Blackjack__RandomWordsRequested",
            "type": "event"
        },
        {
            "anonymous": false,
            "inputs": [
                {
                    "components": [
                        {
                            "internalType": "enum Blackjack.Rank",
                            "name": "rank",
                            "type": "uint8"
                        },
                        {
                            "internalType": "enum Blackjack.Suit",
                            "name": "suit",
                            "type": "uint8"
                        },
                        {
                            "internalType": "uint8",
                            "name": "cardValue",
                            "type": "uint8"
                        },
                        {
                            "internalType": "bool",
                            "name": "hasBeenPlayed",
                            "type": "bool"
                        }
                    ],
                    "indexed": false,
                    "internalType": "struct Blackjack.Card",
                    "name": "",
                    "type": "tuple"
                },
                {
                    "components": [
                        {
                            "internalType": "enum Blackjack.Rank",
                            "name": "rank",
                            "type": "uint8"
                        },
                        {
                            "internalType": "enum Blackjack.Suit",
                            "name": "suit",
                            "type": "uint8"
                        },
                        {
                            "internalType": "uint8",
                            "name": "cardValue",
                            "type": "uint8"
                        },
                        {
                            "internalType": "bool",
                            "name": "hasBeenPlayed",
                            "type": "bool"
                        }
                    ],
                    "indexed": false,
                    "internalType": "struct Blackjack.Card",
                    "name": "",
                    "type": "tuple"
                },
                {
                    "components": [
                        {
                            "internalType": "enum Blackjack.Rank",
                            "name": "rank",
                            "type": "uint8"
                        },
                        {
                            "internalType": "enum Blackjack.Suit",
                            "name": "suit",
                            "type": "uint8"
                        },
                        {
                            "internalType": "uint8",
                            "name": "cardValue",
                            "type": "uint8"
                        },
                        {
                            "internalType": "bool",
                            "name": "hasBeenPlayed",
                            "type": "bool"
                        }
                    ],
                    "indexed": false,
                    "internalType": "struct Blackjack.Card",
                    "name": "",
                    "type": "tuple"
                },
                {
                    "components": [
                        {
                            "internalType": "enum Blackjack.Rank",
                            "name": "rank",
                            "type": "uint8"
                        },
                        {
                            "internalType": "enum Blackjack.Suit",
                            "name": "suit",
                            "type": "uint8"
                        },
                        {
                            "internalType": "uint8",
                            "name": "cardValue",
                            "type": "uint8"
                        },
                        {
                            "internalType": "bool",
                            "name": "hasBeenPlayed",
                            "type": "bool"
                        }
                    ],
                    "indexed": false,
                    "internalType": "struct Blackjack.Card",
                    "name": "",
                    "type": "tuple"
                }
            ],
            "name": "Blackjack__ReturnedFirstRandomFourCards",
            "type": "event"
        },
        {
            "anonymous": false,
            "inputs": [
                {
                    "components": [
                        {
                            "internalType": "enum Blackjack.Rank",
                            "name": "rank",
                            "type": "uint8"
                        },
                        {
                            "internalType": "enum Blackjack.Suit",
                            "name": "suit",
                            "type": "uint8"
                        },
                        {
                            "internalType": "uint8",
                            "name": "cardValue",
                            "type": "uint8"
                        },
                        {
                            "internalType": "bool",
                            "name": "hasBeenPlayed",
                            "type": "bool"
                        }
                    ],
                    "indexed": false,
                    "internalType": "struct Blackjack.Card[]",
                    "name": "",
                    "type": "tuple[]"
                }
            ],
            "name": "Blackjack__ReturnedRandomness",
            "type": "event"
        },
        {
            "inputs": [
                {
                    "internalType": "bytes",
                    "name": "",
                    "type": "bytes"
                }
            ],
            "name": "checkUpkeep",
            "outputs": [
                {
                    "internalType": "bool",
                    "name": "upkeepNeeded",
                    "type": "bool"
                },
                {
                    "internalType": "bytes",
                    "name": "",
                    "type": "bytes"
                }
            ],
            "stateMutability": "view",
            "type": "function"
        },
        {
            "inputs": [],
            "name": "dealCards",
            "outputs": [
                {
                    "internalType": "uint256",
                    "name": "",
                    "type": "uint256"
                }
            ],
            "stateMutability": "nonpayable",
            "type": "function"
        },
        {
            "inputs": [],
            "name": "dealerHitCard",
            "outputs": [],
            "stateMutability": "nonpayable",
            "type": "function"
        },
        {
            "inputs": [
                {
                    "internalType": "uint256",
                    "name": "",
                    "type": "uint256"
                }
            ],
            "name": "deck",
            "outputs": [
                {
                    "internalType": "enum Blackjack.Rank",
                    "name": "rank",
                    "type": "uint8"
                },
                {
                    "internalType": "enum Blackjack.Suit",
                    "name": "suit",
                    "type": "uint8"
                },
                {
                    "internalType": "uint8",
                    "name": "cardValue",
                    "type": "uint8"
                },
                {
                    "internalType": "bool",
                    "name": "hasBeenPlayed",
                    "type": "bool"
                }
            ],
            "stateMutability": "view",
            "type": "function"
        },
        {
            "inputs": [],
            "name": "getCardsAlreadyDealt",
            "outputs": [
                {
                    "internalType": "bool",
                    "name": "",
                    "type": "bool"
                }
            ],
            "stateMutability": "view",
            "type": "function"
        },
        {
            "inputs": [],
            "name": "getCounter",
            "outputs": [
                {
                    "internalType": "uint256",
                    "name": "",
                    "type": "uint256"
                }
            ],
            "stateMutability": "view",
            "type": "function"
        },
        {
            "inputs": [],
            "name": "getDealerTurn",
            "outputs": [
                {
                    "internalType": "bool",
                    "name": "",
                    "type": "bool"
                }
            ],
            "stateMutability": "view",
            "type": "function"
        },
        {
            "inputs": [],
            "name": "getDealerValue",
            "outputs": [
                {
                    "internalType": "uint8",
                    "name": "",
                    "type": "uint8"
                }
            ],
            "stateMutability": "view",
            "type": "function"
        },
        {
            "inputs": [],
            "name": "getDealerWins",
            "outputs": [
                {
                    "internalType": "bool",
                    "name": "",
                    "type": "bool"
                }
            ],
            "stateMutability": "view",
            "type": "function"
        },
        {
            "inputs": [],
            "name": "getDeck",
            "outputs": [
                {
                    "components": [
                        {
                            "internalType": "enum Blackjack.Rank",
                            "name": "rank",
                            "type": "uint8"
                        },
                        {
                            "internalType": "enum Blackjack.Suit",
                            "name": "suit",
                            "type": "uint8"
                        },
                        {
                            "internalType": "uint8",
                            "name": "cardValue",
                            "type": "uint8"
                        },
                        {
                            "internalType": "bool",
                            "name": "hasBeenPlayed",
                            "type": "bool"
                        }
                    ],
                    "internalType": "struct Blackjack.Card[]",
                    "name": "",
                    "type": "tuple[]"
                }
            ],
            "stateMutability": "view",
            "type": "function"
        },
        {
            "inputs": [],
            "name": "getGameStarted",
            "outputs": [
                {
                    "internalType": "bool",
                    "name": "",
                    "type": "bool"
                }
            ],
            "stateMutability": "view",
            "type": "function"
        },
        {
            "inputs": [],
            "name": "getPlayerTurn",
            "outputs": [
                {
                    "internalType": "bool",
                    "name": "",
                    "type": "bool"
                }
            ],
            "stateMutability": "view",
            "type": "function"
        },
        {
            "inputs": [],
            "name": "getPlayerValue",
            "outputs": [
                {
                    "internalType": "uint8",
                    "name": "",
                    "type": "uint8"
                }
            ],
            "stateMutability": "view",
            "type": "function"
        },
        {
            "inputs": [],
            "name": "getPlayerWins",
            "outputs": [
                {
                    "internalType": "bool",
                    "name": "",
                    "type": "bool"
                }
            ],
            "stateMutability": "view",
            "type": "function"
        },
        {
            "inputs": [],
            "name": "getRandomResult",
            "outputs": [
                {
                    "components": [
                        {
                            "internalType": "enum Blackjack.Rank",
                            "name": "rank",
                            "type": "uint8"
                        },
                        {
                            "internalType": "enum Blackjack.Suit",
                            "name": "suit",
                            "type": "uint8"
                        },
                        {
                            "internalType": "uint8",
                            "name": "cardValue",
                            "type": "uint8"
                        },
                        {
                            "internalType": "bool",
                            "name": "hasBeenPlayed",
                            "type": "bool"
                        }
                    ],
                    "internalType": "struct Blackjack.Card[]",
                    "name": "",
                    "type": "tuple[]"
                }
            ],
            "stateMutability": "view",
            "type": "function"
        },
        {
            "inputs": [
                {
                    "internalType": "bytes",
                    "name": "",
                    "type": "bytes"
                }
            ],
            "name": "performUpkeep",
            "outputs": [],
            "stateMutability": "nonpayable",
            "type": "function"
        },
        {
            "inputs": [],
            "name": "playerHitCard",
            "outputs": [
                {
                    "components": [
                        {
                            "internalType": "enum Blackjack.Rank",
                            "name": "rank",
                            "type": "uint8"
                        },
                        {
                            "internalType": "enum Blackjack.Suit",
                            "name": "suit",
                            "type": "uint8"
                        },
                        {
                            "internalType": "uint8",
                            "name": "cardValue",
                            "type": "uint8"
                        },
                        {
                            "internalType": "bool",
                            "name": "hasBeenPlayed",
                            "type": "bool"
                        }
                    ],
                    "internalType": "struct Blackjack.Card",
                    "name": "",
                    "type": "tuple"
                }
            ],
            "stateMutability": "nonpayable",
            "type": "function"
        },
        {
            "inputs": [
                {
                    "internalType": "uint256",
                    "name": "requestId",
                    "type": "uint256"
                },
                {
                    "internalType": "uint256[]",
                    "name": "randomWords",
                    "type": "uint256[]"
                }
            ],
            "name": "rawFulfillRandomWords",
            "outputs": [],
            "stateMutability": "nonpayable",
            "type": "function"
        },
        {
            "inputs": [
                {
                    "internalType": "uint256",
                    "name": "",
                    "type": "uint256"
                }
            ],
            "name": "s_randomResult",
            "outputs": [
                {
                    "internalType": "enum Blackjack.Rank",
                    "name": "rank",
                    "type": "uint8"
                },
                {
                    "internalType": "enum Blackjack.Suit",
                    "name": "suit",
                    "type": "uint8"
                },
                {
                    "internalType": "uint8",
                    "name": "cardValue",
                    "type": "uint8"
                },
                {
                    "internalType": "bool",
                    "name": "hasBeenPlayed",
                    "type": "bool"
                }
            ],
            "stateMutability": "view",
            "type": "function"
        },
        {
            "inputs": [],
            "name": "s_requestId",
            "outputs": [
                {
                    "internalType": "uint256",
                    "name": "",
                    "type": "uint256"
                }
            ],
            "stateMutability": "view",
            "type": "function"
        },
        {
            "inputs": [],
            "name": "standHand",
            "outputs": [],
            "stateMutability": "nonpayable",
            "type": "function"
        },
        {
            "inputs": [],
            "name": "startGame",
            "outputs": [],
            "stateMutability": "nonpayable",
            "type": "function"
        }
    ],
    "bytecode": {
        "object": "0x6101206040527f474e34a077df58807dbe9c96d3c009b23b3c6d0cce433e59bbf5b34f823bc56c60e052611c20610100526000805462ffffff60381b191667340000000000000017815560015560346002553480156200005e57600080fd5b50738103b0a8a00be2ddc778e6e7eaa21791cd364625608081905260a05273779877a7b0d9e8603169ddbd7836e478b462478960c052600580546001600160a01b031916331790556000805b600d811015620002485760005b60048110156200023e57600082600c811115620000d857620000d862000250565b90506000826003811115620000f157620000f162000250565b9050600084620001045750600162000136565b6001851015801562000117575060088511155b1562000132576200012a8560016200027c565b905062000136565b50600a5b604051806080016040528084600c81111562000156576200015662000250565b815260200183600381111562000170576200017062000250565b815260ff83166020808301919091526000604092830181905289815260069091522081518154829060ff1916600183600c811115620001b357620001b362000250565b021790555060208201518154829061ff001916610100836003811115620001de57620001de62000250565b021790555060408201518154606090930151151563010000000263ff0000001960ff90921662010000029190911663ffff00001990931692909217919091179055856200022b816200029e565b96505060019093019250620000b7915050565b50600101620000aa565b5050620002ba565b634e487b7160e01b600052602160045260246000fd5b634e487b7160e01b600052601160045260246000fd5b60ff818116838216019081111562000298576200029862000266565b92915050565b600060018201620002b357620002b362000266565b5060010190565b60805160a05160c05160e0516101005161209862000303600039600061105201526000611023015260005050600061109d0152600081816103f0015261045801526120986000f3fe608060405234801561001057600080fd5b50600436106101825760003560e01c8063876e7306116100d8578063d65ab5f21161008c578063e89e106a11610066578063e89e106a14610377578063ea1df72114610380578063f80789691461039057600080fd5b8063d65ab5f214610354578063d6ffa29a1461035c578063e126e6541461036457600080fd5b80638d6204a6116100bd5780638d6204a61461032c5780639267b291146103345780639fda4d051461033f57600080fd5b8063876e7306146103035780638ada066e1461031a57600080fd5b8063339434741161013a5780636e04ff0d116101145780636e04ff0d146102725780637173ac92146102d55780637390c786146102fb57600080fd5b8063339434741461020b5780634585e33b1461022057806365b1dafa1461023357600080fd5b806320ac88ad1161016b57806320ac88ad146101c85780632572cd6e146101e65780632666af9f146101f757600080fd5b80631736f6aa146101875780631fe543e3146101b3575b600080fd5b61019a610195366004611b16565b610398565b6040516101aa9493929190611b82565b60405180910390f35b6101c66101c1366004611be6565b6103d8565b005b6000546301000000900460ff165b60405190151581526020016101aa565b60005462010000900460ff166101d6565b60005465010000000000900460ff166101d6565b610213610498565b6040516101aa9190611d06565b6101c661022e366004611d54565b6105ca565b61019a610241366004611b16565b60066020526000908152604090205460ff808216916101008104821691620100008204811691630100000090041684565b6102c7610280366004611d54565b505060005460408051808201909152600381527f30783000000000000000000000000000000000000000000000000000000000006020820152630100000090910460ff1691565b6040516101aa929190611dc6565b6000546901000000000000000000900460ff165b60405160ff90911681526020016101aa565b610213610618565b60005468010000000000000000900460ff166102e9565b6001545b6040519081526020016101aa565b6101c66106fb565b60005460ff166101d6565b610347610a5e565b6040516101aa9190611e3d565b6101c6610e4a565b61031e610f79565b600054640100000000900460ff166101d6565b61031e60035481565b600054610100900460ff166101d6565b6101c661117f565b600481815481106103a857600080fd5b60009182526020909120015460ff8082169250610100820481169162010000810482169163010000009091041684565b3373ffffffffffffffffffffffffffffffffffffffff7f0000000000000000000000000000000000000000000000000000000000000000161461048a576040517f1cf993f400000000000000000000000000000000000000000000000000000000815233600482015273ffffffffffffffffffffffffffffffffffffffff7f00000000000000000000000000000000000000000000000000000000000000001660248201526044015b60405180910390fd5b61049482826112e3565b5050565b6040805160348082526106a082019092526060919060009082816020015b6104e2604080516080810190915280600081526020016000815260006020820181905260409091015290565b8152602001906001900390816104b657905050905060005b828110156105c357600081815260066020526040908190208151608081019092528054829060ff16600c81111561053357610533611b2f565b600c81111561054457610544611b2f565b81528154602090910190610100900460ff16600381111561056757610567611b2f565b600381111561057857610578611b2f565b8152905460ff62010000820481166020840152630100000090910416151560409091015282518390839081106105b0576105b0611e51565b60209081029190910101526001016104fa565b5092915050565b60005460ff690100000000000000000082048116680100000000000000009092041610801561060b575060005460156801000000000000000090910460ff16105b15610494576104946106fb565b60606004805480602002602001604051908101604052809291908181526020016000905b828210156106f25760008481526020902060408051608081019091529083018054829060ff16600c81111561067357610673611b2f565b600c81111561068457610684611b2f565b81528154602090910190610100900460ff1660038111156106a7576106a7611b2f565b60038111156106b8576106b8611b2f565b8152905460ff620100008204811660208085019190915263010000009092041615156040909201919091529082526001909201910161063c565b50505050905090565b60005462010000900460ff161561074e576000546040517fec477f390000000000000000000000000000000000000000000000000000000081526201000090910460ff1615156004820152602401610481565b6000546301000000900460ff166107a2576000546040517f77d4c7fd000000000000000000000000000000000000000000000000000000008152630100000090910460ff1615156004820152602401610481565b600180549060006107b283611eaf565b91905055506004600154815481106107cc576107cc611e51565b6000918252602090912001546301000000900460ff1615610819576040517f1e590c3300000000000000000000000000000000000000000000000000000000815260040160405180910390fd5b600160046001548154811061083057610830611e51565b9060005260206000200160000160036101000a81548160ff02191690831515021790555060046001548154811061086957610869611e51565b6000918252602082200154815460ff620100009092048216929160089161089e91859168010000000000000000900416611ee7565b92506101000a81548160ff021916908360ff1602179055506015600060089054906101000a900460ff1660ff16111561093157600080547fffffffffffffffffffffffffffffffffffffffffffffffffffffff00ffffffff166401000000001781556040517fc6caae6e7b8d02f951bc32a960746fd73831e388a35dfc39e8710bdb9854a7999190a161092f611978565b565b60005460ff6901000000000000000000820481166801000000000000000090920416036109b857600080547fffffffffffffffffffffffffffffffffffffffffffffffffff00ffffffffffff1666010000000000001781556040517f26b262421b23b49b17a6535d32c0ce132132ad2e5a4a94485e97ad5edace0b9e9190a161092f611978565b60005460ff69010000000000000000008204811668010000000000000000909204161180156109fa575060005460156801000000000000000090910460ff1611155b1561092f57600080547fffffffffffffffffffffffffffffffffffffffffffffffffffff00ffffffffff16650100000000001781556040517f0ac9cedfc70d367b0782cdba18847f88b8081e18259e0d0e7ae8d8f9a752845c9190a161092f611978565b610a8a604080516080810190915280600081526020016000815260006020820181905260409091015290565b60005462010000900460ff16610adc576000546040517f914174440000000000000000000000000000000000000000000000000000000081526201000090910460ff1615156004820152602401610481565b60018054906000610aec83611eaf565b90915550506004546001541115610b5f576040517f80c053cd00000000000000000000000000000000000000000000000000000000815260206004820152601360248201527f496e646578206f7574206f6620626f756e6473000000000000000000000000006044820152606401610481565b600460015481548110610b7457610b74611e51565b6000918252602090912001546301000000900460ff1615610bc1576040517f1e590c3300000000000000000000000000000000000000000000000000000000815260040160405180910390fd5b6001600460015481548110610bd857610bd8611e51565b9060005260206000200160000160036101000a81548160ff021916908315150217905550600460015481548110610c1157610c11611e51565b6000918252602082200154815460ff6201000090920482169291600991610c479185916901000000000000000000900416611ee7565b92506101000a81548160ff021916908360ff1602179055506015600060099054906101000a900460ff1660ff161115610cdc57600080547fffffffffffffffffffffffffffffffffffffffffffffffffffff00ffff00ffff1665010000000000179055610cb2611978565b6040517f0ac9cedfc70d367b0782cdba18847f88b8081e18259e0d0e7ae8d8f9a752845c90600090a15b7fb3610a99f6b2ae56754e6cca23ac39983156a93c24525781f3a49832dc4f07c0600460015481548110610d1257610d12611e51565b6000918252602090912001546001546004805460ff909316929091908110610d3c57610d3c611e51565b9060005260206000200160000160019054906101000a900460ff16600460015481548110610d6c57610d6c611e51565b600091825260209091200154604051610d9093929162010000900460ff1690611f00565b60405180910390a1600460015481548110610dad57610dad611e51565b60009182526020909120604080516080810190915291018054829060ff16600c811115610ddc57610ddc611b2f565b600c811115610ded57610ded611b2f565b81528154602090910190610100900460ff166003811115610e1057610e10611b2f565b6003811115610e2157610e21611b2f565b8152905460ff620100008204811660208401526301000000909104161515604090910152919050565b600054670100000000000000900460ff16603414610e9557600080547fffffffffffffffffffffffffffffffffffffffffffffffff00ffffffffffffff166734000000000000001790555b600080547fffffffffffffffffffffffffffffffffffffffffffffffffffffffffffffff001660011790819055640100000000900460ff1615610efc57600080547fffffffffffffffffffffffffffffffffffffffffffffffffffffff00ffffffff169055565b6000546601000000000000900460ff1615610f3b57600080547fffffffffffffffffffffffffffffffffffffffffffffffffff00ffffffffffff169055565b60005465010000000000900460ff161561092f57600080547fffffffffffffffffffffffffffffffffffffffffffffffffffff00ffffffffff169055565b6000805460ff16610fb6576040517f9781423100000000000000000000000000000000000000000000000000000000815260040160405180910390fd5b600054610100900460ff1615610ff8576040517f6cf57dc300000000000000000000000000000000000000000000000000000000815260040160405180910390fd5b6000546040517f5d3b1d300000000000000000000000000000000000000000000000000000000081527f0000000000000000000000000000000000000000000000000000000000000000600482015267ffffffffffffffff7f000000000000000000000000000000000000000000000000000000000000000016602482015260036044820152622625a0606482015267010000000000000090910460ff1660848201527f000000000000000000000000000000000000000000000000000000000000000073ffffffffffffffffffffffffffffffffffffffff1690635d3b1d309060a4016020604051808303816000875af11580156110fb573d6000803e3d6000fd5b505050506040513d601f19601f8201168201806040525081019061111f9190611f2c565b6003819055600080547fffffffffffffffffffffffffffffffffffffffffffffffffffffffffff0000ff16620101001781556040517fa664d41ef6a537fd262eca70384352ea01d216be5749208cdda7e8952b91f0a39190a25060035490565b600054610100900460ff166111cf576000546040517fce2049b100000000000000000000000000000000000000000000000000000000815261010090910460ff1615156004820152602401610481565b60005462010000900460ff16611221576000546040517f914174440000000000000000000000000000000000000000000000000000000081526201000090910460ff1615156004820152602401610481565b600080547fffffffffffffffffffffffffffffffffffffffffffffffffffffffffff00ffff16908190556301000000900460ff161561128c576040517fc228e03e00000000000000000000000000000000000000000000000000000000815260040160405180910390fd5b600080547fffffffffffffffffffffffffffffffffffffffffffffffffffffffff00ffffff1663010000001781556040517f6206b7a012c37f1a1cb329ac9e2472b1ebded5b804330571902f6bb295c056c69190a1565b6003548214611321576040517f9d89b96200000000000000000000000000000000000000000000000000000000815260048101839052602401610481565b6000805b825181101561153157603483828151811061134257611342611e51565b60200260200101516113549190611f45565b60008181526006602052604080822081516080810190925280549395509192909190829060ff16600c81111561138c5761138c611b2f565b600c81111561139d5761139d611b2f565b81528154602090910190610100900460ff1660038111156113c0576113c0611b2f565b60038111156113d1576113d1611b2f565b8152905460ff620100008204811660208401526301000000909104161515604090910152600480546001818101835560009290925282517f8a35acfbc15ff81a39ae7d344fd709f28e8600b4aa8c65c6b64bfe7fe36bd19b90910180549394508493909283917fffffffffffffffffffffffffffffffffffffffffffffffffffffffffffffff00169083600c81111561146c5761146c611b2f565b02179055506020820151815482907fffffffffffffffffffffffffffffffffffffffffffffffffffffffffffff00ff166101008360038111156114b1576114b1611b2f565b02179055506040820151815460609093015115156301000000027fffffffffffffffffffffffffffffffffffffffffffffffffffffffff00ffffff60ff9092166201000002919091167fffffffffffffffffffffffffffffffffffffffffffffffffffffffff0000ffff9093169290921791909117905550600101611325565b5060045460015411156115a0576040517f80c053cd00000000000000000000000000000000000000000000000000000000815260206004820152601360248201527f496e646578206f7574206f6620626f756e6473000000000000000000000000006044820152606401610481565b6003600160008282546115b39190611f80565b925050819055506004600154815481106115cf576115cf611e51565b6000918252602090912001546301000000900460ff161561161c576040517f1e590c3300000000000000000000000000000000000000000000000000000000815260040160405180910390fd5b6001600460008154811061163257611632611e51565b9060005260206000200160000160036101000a81548160ff0219169083151502179055506001600460018154811061166c5761166c611e51565b9060005260206000200160000160036101000a81548160ff021916908315150217905550600160046002815481106116a6576116a6611e51565b9060005260206000200160000160036101000a81548160ff021916908315150217905550600160046003815481106116e0576116e0611e51565b9060005260206000200160000160036101000a81548160ff021916908315150217905550600460008154811061171857611718611e51565b6000918252602082200154815460ff620100009092048216929160099161174e9185916901000000000000000000900416611ee7565b92506101000a81548160ff021916908360ff160217905550600460018154811061177a5761177a611e51565b6000918252602082200154815460ff62010000909204821692916008916117af91859168010000000000000000900416611ee7565b92506101000a81548160ff021916908360ff16021790555060046002815481106117db576117db611e51565b6000918252602082200154815460ff62010000909204821692916009916118119185916901000000000000000000900416611ee7565b92506101000a81548160ff021916908360ff160217905550600460038154811061183d5761183d611e51565b6000918252602082200154815460ff620100009092048216929160089161187291859168010000000000000000900416611ee7565b92506101000a81548160ff021916908360ff1602179055507ff05939fd4f85bade149b8bae76ad92473c461fed3469f64ae1cdb008b6a1d23a60046000815481106118bf576118bf611e51565b9060005260206000200160046001815481106118dd576118dd611e51565b9060005260206000200160046002815481106118fb576118fb611e51565b90600052602060002001600460038154811061191957611919611e51565b906000526020600020016040516119339493929190611fd4565b60405180910390a17f24ba8adcd96de99034c063e7a84bc2186187f27f34807f98d47cf31517939472600460405161196b9190612015565b60405180910390a1505050565b6119806119b4565b60008054600182905560038290557fffffffffffffffffffffffffffffffffffffffffffff0000ffffffff00ff0000169055565b60005b600454811015611b13576000600482815481106119d6576119d6611e51565b600091825260209091200180547fffffffffffffffffffffffffffffffffffffffffffffffffffffffffffffff0016600183600c811115611a1957611a19611b2f565b0217905550600060048281548110611a3357611a33611e51565b600091825260209091200180547fffffffffffffffffffffffffffffffffffffffffffffffffffffffffffff00ff16610100836003811115611a7757611a77611b2f565b0217905550600060048281548110611a9157611a91611e51565b9060005260206000200160000160026101000a81548160ff021916908360ff160217905550600060048281548110611acb57611acb611e51565b600091825260209091200180549115156301000000027fffffffffffffffffffffffffffffffffffffffffffffffffffffffff00ffffff9092169190911790556001016119b7565b50565b600060208284031215611b2857600080fd5b5035919050565b7f4e487b7100000000000000000000000000000000000000000000000000000000600052602160045260246000fd5b600d8110611b6e57611b6e611b2f565b9052565b60048110611b6e57611b6e611b2f565b60808101611b908287611b5e565b611b9d6020830186611b72565b60ff84166040830152821515606083015295945050505050565b7f4e487b7100000000000000000000000000000000000000000000000000000000600052604160045260246000fd5b60008060408385031215611bf957600080fd5b8235915060208084013567ffffffffffffffff80821115611c1957600080fd5b818601915086601f830112611c2d57600080fd5b813581811115611c3f57611c3f611bb7565b8060051b6040517fffffffffffffffffffffffffffffffffffffffffffffffffffffffffffffffe0603f83011681018181108582111715611c8257611c82611bb7565b604052918252848201925083810185019189831115611ca057600080fd5b938501935b82851015611cbe57843584529385019392850192611ca5565b8096505050505050509250929050565b611cd9828251611b5e565b6020810151611ceb6020840182611b72565b5060408181015160ff16908301526060908101511515910152565b6020808252825182820181905260009190848201906040850190845b81811015611d4857611d35838551611cce565b9284019260809290920191600101611d22565b50909695505050505050565b60008060208385031215611d6757600080fd5b823567ffffffffffffffff80821115611d7f57600080fd5b818501915085601f830112611d9357600080fd5b813581811115611da257600080fd5b866020828501011115611db457600080fd5b60209290920196919550909350505050565b82151581526000602060406020840152835180604085015260005b81811015611dfd57858101830151858201606001528201611de1565b5060006060828601015260607fffffffffffffffffffffffffffffffffffffffffffffffffffffffffffffffe0601f830116850101925050509392505050565b60808101611e4b8284611cce565b92915050565b7f4e487b7100000000000000000000000000000000000000000000000000000000600052603260045260246000fd5b7f4e487b7100000000000000000000000000000000000000000000000000000000600052601160045260246000fd5b60007fffffffffffffffffffffffffffffffffffffffffffffffffffffffffffffffff8203611ee057611ee0611e80565b5060010190565b60ff8181168382160190811115611e4b57611e4b611e80565b60608101611f0e8286611b5e565b611f1b6020830185611b72565b60ff83166040830152949350505050565b600060208284031215611f3e57600080fd5b5051919050565b600082611f7b577f4e487b7100000000000000000000000000000000000000000000000000000000600052601260045260246000fd5b500690565b80820180821115611e4b57611e4b611e80565b8054611fa28360ff8316611b5e565b611fb56020840160ff8360081c16611b72565b60ff8160101c16604084015260ff8160181c1615156060840152505050565b6102008101611fe38287611f93565b611ff06080830186611f93565b611ffe610100830185611f93565b61200c610180830184611f93565b95945050505050565b602080825282548282018190526000848152918220906040840190835b81811015612057576120448385611f93565b6001938401936080939093019201612032565b50909594505050505056fea2646970667358221220f8df324bea7e0dc7af64023396eaffd3f67bd21d9ea2bc9c8189957efd66d82964736f6c63430008170033",
        "linkReferences": {}
    },
    "methodIdentifiers": {
        "checkUpkeep(bytes)": "6e04ff0d",
        "dealCards()": "d6ffa29a",
        "dealerHitCard()": "8d6204a6",
        "deck(uint256)": "65b1dafa",
        "getCardsAlreadyDealt()": "ea1df721",
        "getCounter()": "8ada066e",
        "getDealerTurn()": "20ac88ad",
        "getDealerValue()": "876e7306",
        "getDealerWins()": "2666af9f",
        "getDeck()": "33943474",
        "getGameStarted()": "9267b291",
        "getPlayerTurn()": "2572cd6e",
        "getPlayerValue()": "7173ac92",
        "getPlayerWins()": "e126e654",
        "getRandomResult()": "7390c786",
        "performUpkeep(bytes)": "4585e33b",
        "playerHitCard()": "9fda4d05",
        "rawFulfillRandomWords(uint256,uint256[])": "1fe543e3",
        "s_randomResult(uint256)": "1736f6aa",
        "s_requestId()": "e89e106a",
        "standHand()": "f8078969",
        "startGame()": "d65ab5f2"
    },
    "id": 15
}